{
  "contractName": "Census",
  "abi": [
    {
      "constant": true,
      "inputs": [],
      "name": "height",
      "outputs": [
        {
          "name": "",
          "type": "uint256"
        }
      ],
      "payable": false,
      "stateMutability": "view",
      "type": "function",
      "signature": "0x0ef26743"
    },
    {
      "constant": true,
      "inputs": [
        {
          "name": "",
          "type": "uint256"
        }
      ],
      "name": "blockArray",
      "outputs": [
        {
          "name": "height",
          "type": "uint256"
        },
        {
          "name": "id",
          "type": "uint256"
        },
        {
          "name": "name",
          "type": "string"
        },
        {
          "name": "add",
          "type": "string"
        },
        {
          "name": "phoneNumber",
          "type": "uint256"
        }
      ],
      "payable": false,
      "stateMutability": "view",
      "type": "function",
      "signature": "0x88c86d1d"
    },
    {
      "inputs": [],
      "payable": false,
      "stateMutability": "nonpayable",
      "type": "constructor",
      "signature": "constructor"
    },
    {
      "constant": false,
      "inputs": [
        {
          "name": "_name",
          "type": "string"
        },
        {
          "name": "_add",
          "type": "string"
        },
        {
          "name": "_phoneNumber",
          "type": "uint256"
        }
      ],
      "name": "addBlock",
      "outputs": [],
      "payable": false,
      "stateMutability": "nonpayable",
      "type": "function",
      "signature": "0x1bde95fb"
    },
    {
      "constant": true,
      "inputs": [],
      "name": "getAllBlockDetails",
      "outputs": [
        {
          "components": [
            {
              "name": "height",
              "type": "uint256"
            },
            {
              "name": "id",
              "type": "uint256"
            },
            {
              "name": "name",
              "type": "string"
            },
            {
              "name": "add",
              "type": "string"
            },
            {
              "name": "phoneNumber",
              "type": "uint256"
            }
          ],
          "name": "",
          "type": "tuple[]"
        }
      ],
      "payable": false,
      "stateMutability": "view",
      "type": "function",
      "signature": "0xbc097348"
    }
  ],
  "bytecode": "0x608060405234801561001057600080fd5b50600080819055506109db806100276000396000f3fe608060405260043610610062576000357c0100000000000000000000000000000000000000000000000000000000900463ffffffff1680630ef26743146100675780631bde95fb1461009257806388c86d1d146100bb578063bc097348146100fc575b600080fd5b34801561007357600080fd5b5061007c610127565b6040516100899190610835565b60405180910390f35b34801561009e57600080fd5b506100b960048036036100b4919081019061063b565b61012d565b005b3480156100c757600080fd5b506100e260048036036100dd91908101906106ba565b6101f5565b6040516100f3959493929190610850565b60405180910390f35b34801561010857600080fd5b5061011161036a565b60405161011e9190610813565b60405180910390f35b60005481565b600160a06040519081016040528060005481526020014281526020018581526020018481526020018381525090806001815401808255809150509060018203906000526020600020906005020160009091929091909150600082015181600001556020820151816001015560408201518160020190805190602001906101b492919061052c565b5060608201518160030190805190602001906101d192919061052c565b50608082015181600401555050506000808154809291906001019190505550505050565b60018181548110151561020457fe5b9060005260206000209060050201600091509050806000015490806001015490806002018054600181600116156101000203166002900480601f0160208091040260200160405190810160405280929190818152602001828054600181600116156101000203166002900480156102bc5780601f10610291576101008083540402835291602001916102bc565b820191906000526020600020905b81548152906001019060200180831161029f57829003601f168201915b505050505090806003018054600181600116156101000203166002900480601f01602080910402602001604051908101604052809291908181526020018280546001816001161561010002031660029004801561035a5780601f1061032f5761010080835404028352916020019161035a565b820191906000526020600020905b81548152906001019060200180831161033d57829003601f168201915b5050505050908060040154905085565b60606001805480602002602001604051908101604052809291908181526020016000905b82821015610523578382906000526020600020906005020160a060405190810160405290816000820154815260200160018201548152602001600282018054600181600116156101000203166002900480601f01602080910402602001604051908101604052809291908181526020018280546001816001161561010002031660029004801561045f5780601f106104345761010080835404028352916020019161045f565b820191906000526020600020905b81548152906001019060200180831161044257829003601f168201915b50505050508152602001600382018054600181600116156101000203166002900480601f0160208091040260200160405190810160405280929190818152602001828054600181600116156101000203166002900480156105015780601f106104d657610100808354040283529160200191610501565b820191906000526020600020905b8154815290600101906020018083116104e457829003601f168201915b505050505081526020016004820154815250508152602001906001019061038e565b50505050905090565b828054600181600116156101000203166002900490600052602060002090601f016020900481019282601f1061056d57805160ff191683800117855561059b565b8280016001018555821561059b579182015b8281111561059a57825182559160200191906001019061057f565b5b5090506105a891906105ac565b5090565b6105ce91905b808211156105ca5760008160009055506001016105b2565b5090565b90565b600082601f83011215156105e457600080fd5b81356105f76105f2826108de565b6108b1565b9150808252602083016020830185838301111561061357600080fd5b61061e83828461094e565b50505092915050565b60006106338235610944565b905092915050565b60008060006060848603121561065057600080fd5b600084013567ffffffffffffffff81111561066a57600080fd5b610676868287016105d1565b935050602084013567ffffffffffffffff81111561069357600080fd5b61069f868287016105d1565b92505060406106b086828701610627565b9150509250925092565b6000602082840312156106cc57600080fd5b60006106da84828501610627565b91505092915050565b60006106ee82610917565b808452602084019350836020820285016107078561090a565b60005b84811015610740578383038852610722838351610787565b925061072d8261092d565b915060208801975060018101905061070a565b508196508694505050505092915050565b600061075c82610922565b80845261077081602086016020860161095d565b61077981610990565b602085010191505092915050565b600060a08301600083015161079f6000860182610804565b5060208301516107b26020860182610804565b50604083015184820360408601526107ca8282610751565b915050606083015184820360608601526107e48282610751565b91505060808301516107f96080860182610804565b508091505092915050565b61080d8161093a565b82525050565b6000602082019050818103600083015261082d81846106e3565b905092915050565b600060208201905061084a6000830184610804565b92915050565b600060a0820190506108656000830188610804565b6108726020830187610804565b81810360408301526108848186610751565b905081810360608301526108988185610751565b90506108a76080830184610804565b9695505050505050565b6000604051905081810181811067ffffffffffffffff821117156108d457600080fd5b8060405250919050565b600067ffffffffffffffff8211156108f557600080fd5b601f19601f8301169050602081019050919050565b6000602082019050919050565b600081519050919050565b600081519050919050565b6000602082019050919050565b6000819050919050565b6000819050919050565b82818337600083830152505050565b60005b8381101561097b578082015181840152602081019050610960565b8381111561098a576000848401525b50505050565b6000601f19601f830116905091905056fea265627a7a72305820a683d23c0e5f1a8de56222f429cbfd07dd948dd48b6c91de34e0200785dc92096c6578706572696d656e74616cf50037",
  "source": "pragma solidity ^0.5.0;\r\n\r\npragma experimental ABIEncoderV2;\r\n\r\ncontract Census {\r\n\r\n    uint public height;\r\n    block[] public blockArray ;\r\n\r\n\r\n    struct block{\r\n        uint256 height;\r\n        uint id;\r\n        string name;\r\n        string add;\r\n        uint phoneNumber;\r\n    }\r\n    \r\n    constructor() public{\r\n        height = 0;\r\n    }\r\n\r\n    function addBlock(string memory _name,string memory _add,uint _phoneNumber) public {        \r\n         blockArray.push(block(height,now,_name,_add,_phoneNumber));\r\n         height++;    \r\n     }\r\n\r\n    function getAllBlockDetails() public view returns(block[] memory) {\r\n         return blockArray;\r\n    }\r\n\r\n}\r\n\r\n",
  "sourcePath": "F:/blockchain/solidity/blockchain-solidity/react+truffle+eth+solidity/todo/contracts/census.sol",
  "compiler": {
    "name": "solc",
    "version": "0.5.0+commit.1d4f565a.Emscripten.clang"
  },
  "schemaVersion": "3.0.1",
  "updatedAt": "2020-05-05T11:41:10.711Z",
  "devdoc": {
    "methods": {}
  },
  "userdoc": {
    "methods": {}
  }
}